S01A00005A334C696768745F436F6F7264696E61746F722E73333772
S3150800600000100020C1780008C5D90008C9D90008C1
S31508006010870B0408CDD90008D5D90008870B0408D2
S31508006020870B0408870B0408870B0408870B0408EA
S31508006030D9D900089C400508870B0408870B040873
S31508006040A17D0008870B0408870B0408870B040842
S31508006050870B0408870B0408870B0408870B0408BA
S31508006060870B0408870B0408870B0408A970000827
S3150800607065010408870B0408870B0408870B0408C6
S31508006080870B0408870B0408870B0408870B04088A
S31508006090870B0408B9850008870B0408870B0408D2
S315080060A0870B04088987000865870008870B04089A
S315080060B0870B0408457A0208D5840208AD8B0408C4
S315080060C0A98B0408797C0208B98B0408B18B0408EB
S315080060D0A9840208B58B040815850208818502087B
S315080060E0870B0408870B0408870B0408870B04082A
S315080060F0E9240408870B0408870B0408870B04089F
S31508006100870B0408870B0408870B0408870B040809
S31508006110870B0408870B0408870B0408870B0408F9
S31508006120870B0408870B0408870B0408870B0408E9
S31508006130870B0408870B0408870B0408870B0408D9
S31508006140870B0408870B0408870B04087F2B0408B1
S315080061501D690208870B0408578B04085D8B040821
S31508006160870B0408870B0408870B0408870B0408A9
S31508006170F0B5114A114C124E00F00105E3695F07AC
S3150800618013D40DB9334213D103EA00078F4207D15E
S315080061900B4A1A40002A0CBF00206FF00100F0BD20
S315080061A0013AEBD16FF00200F9E74FF0FF30F6E75E
S315080061B06FF00100F3E700BF8096980000000350D7
S315080061C0020001000B4B70B5D96911F480310DD16D
S315080061D001244FF48072084E084DF46020462C6462
S315080061E01A61FFF7C5FF3464EC6070BD6FF00100FB
S315080061F0FBE700BF000003500010035000200350C7
S315080062004FF4803238B50E4B0E4C9A66E56941F666
S31508006210713315400122E3630B4B0021DA60022338
S31508006220606121202361FFF7A3FF10B92120FFF742
S315080062309FFF0122054BDA600DB10023E36338BDE9
S315080062400090005000000350001003500020035037
S3150800625070B5134C6061E3695B071ED40E4656F8A9
S31508006260043B8D18A361AE420BD1042300212120E3
S315080062702361FFF77DFF58B9BDE870402120FFF77D
S3150800628077BF08210846FFF773FF10B1042323617F
S3150800629070BD56F8043BA361E5E74FF0FF30F7E71A
S315080062A0000003502DE9F84315464FF48032184B89
S315080062B089469A6603F51C33DF690646174041F698
S315080062C07132DA63012203F58053DFF84C80DA6015
S315080062D055B9284601220F4BDA601FB10022A3F5F3
S315080062E00053DA63BDE8F88306F5005404EA0804A7
S315080062F0A41BAC4228BF2C46494622463046FFF727
S31508006300A7FF0028E6D12644A1442D1BE0E700BFDD
S31108006310009000500020035000E0FFFF42
S31508006320013800D0FCE770472DE9F04F4FF0FD0B20
S31508006330C9B09A460DF11B099DF8503108AFCDF842
S315080063400C90CDF808B0019705930389044600938D
S3150800635083790E46904641888288407816F03AFB43
S31508006360054650B10090A388002062883A4916F085
S3150800637097FE284649B0BDE8F08F99F800003EF030
S315080063809EFB38B12846A3886288344916F088FEF1
S315080063908D25EEE75A46394699F800003EF05EFB31
S315080063A08346002851D0529B1BB1BDF84C31984208
S315080063B04BD8002399F800900793A9F14102012AC6
S315080063C05FFA8BF123D838460139254ADFF898C099
S315080063D05FFA81FE734513DB059B04210792C3B957
S315080063E007AF18221F489FED1A7B02FB06042046BA
S315080063F00A460830394684ED027B45F074FF11E001
S3150800640010F8011F013351400CFB01F2E2E7059B2E
S3150800641033B123464A463846009611F09BFBA8E757
S315080064200829DED9B8F1000F01D088F80090BAF132
S31508006430000F01D0AAF800B0529B002B99D05A46FB
S31508006440184608A945F04FFF93E7012591E700BFD5
S31508006450000000000000000073830508A4830508F7
S31508006460C59D1C81F010002093010001000000006A
S315080064702DE9F04F93B0CDE90A32DDE91C530E93AE
S3150800648053EC102BCDE90801104619468DED060B85
S315080064901E9E39F005FA80B1DDE906014FF0FF329C
S315080064A0C54B39F025FA40B9DDE906014FF0FF3250
S315080064B06FF4801339F0FEF970B1DDE908019DED3E
S315080064C0060B0E9B1E96CDE91C53DDE90A3213B066
S315080064D0BDE8F04F00F088B90022DDE90601002387
S315080064E039F0E8F9002800F03381DDE906A303F165
S315080064F0004BCBF30A5016F48063A0F2FF3008BFB6
S3150800650006250F9338F0FAFE9BA3D3E9002338F04B
S315080065105FFF9BA3D3E9002338F0A4FDCBF3130454
S31508006520894644F07F5180460022A44B504641F4E8
S31508006530401138F095FD94A3D3E9002338F048FFBD
S3150800654002460B464046494638F08CFD39F0DAF9E2
S31508006550044638F0D3FE8EA3D3E900238046894645
S3150800656038F036FF0022964B38F07CFD39F0CAF930
S3150800657089A3D3E9002307464946404638F028FF51
S3150800658080463846894638F0B9FE85A3D3E9002304
S3150800659038F01EFF02460B464046494638F060FD75
S315080065A002460B46CDE90C2338F012FFDDE90C2331
S315080065B0804689461046194638F054FD0022CDE932
S315080065C01001804B4046494639F02CF800227E4B94
S315080065D038F048FD02460B464046494639F022F84F
S315080065E000227A4B38F03EFD02460B4640464946A5
S315080065F039F018F8DDE90C238046894600204FF06B
S31508006600804138F02DFD02460B464046494638F093
S3150800661029FD02460B46DDE9100139F003F807F2B9
S31508006620FF3700226A4B38F01DFD00223B0538F083
S31508006630CFFE52465B468046894639F059F900280E
S3150800664040F08980CDE90C8904F16303C72B34BF78
S315080066500427052731051BD553A3D3E90023504644
S31508006660594639F03BF900287FD051A3D3E90023D6
S315080066705046594639F01EF9002876D00027A5421B
S31508006680C6BF2C1B04F1FF3500253C4646F4806640
S315080066900E9B9F422CBF4FF00008A3EB070816F08D
S315080066A0020903D0002F18BF4FF000083CB1DDE9FE
S315080066B00C235046594638F0B5FF82468B46DDE92D
S315080066C006010022002339F0F5F810B10BF100435A
S315080066D09B46DDE9080126F40063CDE90183DDE97F
S315080066E00A324BEC10AB009500F07EF802465FB319
S315080066F0DDE9091316F0200F00F10105089E0CBF0D
S3150800670065204520B047DDE90801052300220593E9
S315080067100A23002CCDE9023207F1FF374FEAD4737A
S31508006720B8BF64422A46019304970A9B009441F035
S315080067303FF90246B9F1000F06D00B9BC41A0B9B12
S315080067401A190E9BA34245D8104613B0BDE8F08F20
S31508006750DDE906ABCDE60022404649461A4B38F03D
S3150800676061FF013CCDE90C016EE7002D90D00F9B2F
S31508006770002B8DD0013D8BE7FB799F501344D33F07
S31508006780B3C8608B288AC63F61436F63A787D23F29
S3150800679071A379094F930A401655B5BBB16B0240F0
S315080067A0EF39FAFE422EE63F2D431CEBE2361A3F3E
S315080067B00000000080842E41FFFFEF7F0000F83FB5
S315080067C00000E03F00002C40000024400000184074
S315080067D00000F03F2020DDE90913089DA847013491
S315080067E0ADE700BF000000002DE9F04F5BEC10ABF1
S315080067F097B0CDE90501DDE92057CDE907235046D5
S3150800680052465B465946229E39F04AF870B9032328
S31508006810CDE902760193B04B0093DDE90501DDE988
S31508006820072340F0E5FF17B0BDE8F08F4FF0FF32C1
S315080068306FF480135046594639F03CF828B10423C2
S31508006840CDE902760193A54BE6E74FF0FF325046B5
S315080068505946A34B39F04CF868B1A24A06F004032E
S31508006860002B08BF0322A04B1CBF13460422CDE908
S3150800687002760192D0E7504693A3D3E900235946FE
S3150800688039F036F838B992A3D3E900235046594669
S3150800689039F010F868B1DDE90723DDE905014BECAD
S315080068A010ABCDE92176209517B0BDE8F04FFFF77C
S315080068B0DFBD002200235046594638F0FBFF00286A
S315080068C000F09A805B4652460020002138F0C8FB4B
S315080068D0012382468B46099316F4806400F08E8065
S315080068E0092D40F28E80002430210EABA5F1090255
S315080068F00134202C03F8011BA5EB040901D09442AE
S31508006900F6D15946504638F0FDFF784B054603EB5D
S31508006910C90393ED007B8DED0A7B38F0EFFC024648
S315080069200B465046594638F09BFBDDE90A2338F0FA
S315080069304FFD02460B46CDE90C2339F00BF880468D
S3150800694038F0CCFC02460B46DDE90C0138F088FB32
S3150800695002460B46CDE90C230022654B38F0C8FFEA
S31508006960002851D008F10108404638F0B7FC024625
S315080069700B46DDE90A0138F0A7FF10B14FF0000811
S315080069800135B9F1000F50D1284638F0B7FC024658
S315080069900B465046594638F063FB0022544B804656
S315080069A0894638F087FF30B1002240464946504BA9
S315080069B038F09EFF10B1E80700D501350A210EAB65
S315080069C01A19202C0AD095FBF1F001FB1055303529
S315080069D002F8015B013405460028F2D106F00302ED
S315080069E0012A57D1002F55D0099A12B916F00C0F63
S315080069F000D0013F302245E009906DE74FF00609C7
S31508006A007FE7A94600247CE70022DDE90C01384B24
S31508006A1038F050FF0028B4D1B8F1000F02D018F0B2
S31508006A20010FAED008F10108ABE70A210EAB2344EB
S31508006A30202C0ED0B8FBF1F001FB1082B8F1090F3B
S31508006A4002F1300209F1FF3904F1010403F8012BC0
S31508006A5011D83021A1440EAA202CAFD0A14504F1AB
S31508006A6001030AD11C4609F158030DEB03092E232D
S31508006A7009F8203CA2E78046DAE7A1541C46EBE772
S31508006A801A550134A74205D9202CF9D1CDE9027649
S31508006A900194C1E6202CF9D0099A3AB12D2104F1C6
S31508006AA058026A4402F8201C0134EFE7710704D53E
S31508006AB004F158022B216A44F4E73207E6D504F1BB
S31508006AC0580220216A44EDE70000000065CDCD415B
S31508006AD00000000065CDCDC169B205086DB2050894
S31508006AE0FFFFEF7F60B2050865B2050878B20508B2
S31508006AF00000E03F0000000070B58EB02C22002197
S31508006B0003A845F0E8FB64234FF002320893CDE969
S31508006B1005230B2301218DF83430534B8DF81010C3
S31508006B201B88D80700F19880084623F0A3FA0A22A2
S31508006B304E4B4F491A704FF428734E48ADF8123031
S31508006B4021F0DCFD4C4C206020B940F259214B481D
S31508006B5006F032FE0521206842F0A1F820B140F285
S31508006B606921464806F028FE206800F0A9FA444B39
S31508006B702068196841F0AAFC0C2524F059F96843E5
S31508006B80099024F055F968430DEB05010790206834
S31508006B901BF014FE20B140F27E21384806F00CFEA8
S31508006BA0256826F0B7FC00220146284641F019FD63
S31508006BB020B14FF42071314806F0FEFD40F2035330
S31508006BC0304D314E2B80052396F90000AB707F2897
S31508006BD001D123F0B3FB3378EB7024F029F900EBED
S31508006BE080008000A88024F023F90023C0004FF01D
S31508006BF0FF31E880AB604FF0FF3019A3D3E90023DB
S31508006C0023F0FAFB2149206842F0F8F8206802A927
S31508006C1041F0C1FC20B140F2B921184806F0CCFD7C
S31508006C20042220680DEB020141F03EFC042804D042
S31508006C304FF42F71114806F0BFFD01A901203FF05E
S31508006C40CDFD06F003FF012024F090FB3AF056FA3A
S31508006C5024F0B6FB23F092FA0EB070BDAFF30080B5
S31508006C600A0020FF4203000080420020A64D0020B3
S31508006C709DA0020870520020483800206EF20508D0
S31508006C80645000203C3800201256002049A2020811
S31508006C900348044B834202D0034B03B1184770479D
S31508006CA04C5600204C56002000000000064B0749B1
S31508006CB0C91A891048BF0131491003D0044B0BB1DA
S31508006CC001481847704700BF4C5600204C56002014
S31508006CD00000000010B5064C237843B9FFF7D8FF2B
S31508006CE0044B13B10448AFF300800123237010BD91
S31508006CF06E4300200000000074F6050808B5054B31
S31508006D001BB105490548AFF30080BDE80840FFF709
S31508006D10CDBF00BF000000003015002074F605083E
S31508006D20A3F5803A704700BF174B002B08BF134BDB
S31508006D309D46FFF7F5FF00218B460F461348144A78
S31508006D40121A45F0C8FA0E4B002B00D098470D4B87
S31508006D50002B00D098470020002104000D000D48A4
S31508006D60002802D00C48AFF3008039F0C7F820009D
S31508006D70290039F094F938F09DFF00BF000008009B
S31508006D80000000000000000000100020A0100020F5
S31508006D90284E0020000000000000000010B53DF05D
S31508006DA028FE02280ED1FF2107483CF04FF80120A3
S31508006DB00CF068FBBDE81040034601210420034A95
S31508006DC00CF0FCBA10BD00BF4815002068C30408C3
S31508006DD01FB53DF00EFE022819D100900DF10E03E5
S31508006DE00022032101203EF059FABDF80E300E4864
S31508006DF053B139F0DFFF4FF47A62FF210B483CF0BC
S31508006E0014F805B05DF804FB39F0CEFFF9E70FF08A
S31508006E10FBFF074B0190009301210420054B064A0E
S31508006E200CF0CCFAEDE700BFC82605086815002067
S31508006E30AEC8040889C304088EC304081FB5012315
S31508006E400022009306210DF10F033EF027FA28B918
S31508006E509DF80F30044823B139F0A6FF05B05DF858
S31508006E6004FB39F0A4FFF9E7C8260508162808B573
S31508006E7004D1BDE80840074839F099BF152808D15C
S31508006E80044839F091FFBDE80840FF2102483BF06D
S31508006E90D5BF08BDC82605084815002037B5FF2404
S31508006EA0094D23462846094A002100940AF0E4FEC3
S31508006EB0074908480AF064FF2146284603B0BDE89A
S31508006EC030403BF0BBBF00BF68150020D16D0008FD
S31508006ED09D6D00084815002010B50446034601219B
S31508006EE004200C4A0CF06AFA9CB113F005FA034622
S31508006EF020B101210420084A0CF060FA01200FF0A5
S31508006F0009F9BDE81040034601210420034A0CF0A4
S31508006F1055BA10BDA2C30408BEC30408EAC30408D0
S31508006F20002301210420014A0CF048BA03C40408CE
S31508006F3008B539F0F6FE28B9BDE80840FF21024831
S31508006F403BF07CBF08BD00BF48150020024B034933
S31508006F5018683BF073B800BFEC4F0020D44F0020F0
S31508006F6030B50A4C0A4B22680A4D1A600A4B85B09E
S31508006F702B600A4B019305F039FE2B68029001A994
S31508006F80206803933AF0B8FE05B030BDEC4F0020F8
S31508006F90C4230020C0230020E04F0020D125050887
S31508006FA0014B18683AF0BCBEEC4F002038B505F026
S31508006FB01DFE0446064D2B68D3F8B00205F00AFEFE
S31508006FC028683AF0C0FE2046BDE8384005F002BE03
S31508006FD0EC4F00201C2230B54FF4E1358FB01E4B24
S31508006FE00DEB02000021069345F075F91B4B0E22A6
S31508006FF0CDE908531A4B00210A9305238DF82E3044
S3150800700006230DF10A008DF8303045F064F94FF487
S315080070107022144B6946CDE900230B238DF80830FE
S315080070200C238DF80930104B06AA039320230493EA
S3150800703001230E488DF815300D4B05F059FE044610
S315080070409DF816302846002B0CBF0321002139F085
S315080070508BFD20460FB030BD1C4A0508000203010F
S315080070600C4A05083C00015B6F4300209C18002071
S3150800707044180020022905D8034B1B68186808B174
S31508007080436A1847704700BFF04F002008B5044907
S31508007090044807F0BFFABDE80840FFF79BBF00BFEA
S315080070A0F44F0020C018002001483BF093BA00BFF7
S315080070B09C180020014B1A6A186810479C18002073
S315080070C008B51BF0A9FB0022014B1A7008BD00BFCA
S315080070D08F430020014839F01FBE00BFB0260508BF
S315080070E0014839F05EBE00BFC82605081FB5084925
S315080070F003460868097902AA02908DF80C100092D6
S3150800710005210022012009F04DFF05B05DF804FBBA
S31508007110E02605081FB50A4A0346106802A9029028
S3150800712090889279ADF80C008DF80E2000914422D3
S315080071304FF44071012009F035FF05B05DF804FBF6
S31508007140E62605081FB5084903460868097902AA0C
S3150800715002908DF80C10009205214222012009F0B8
S3150800716021FF05B05DF804FBEE2605081FB50849A2
S3150800717003460868097902AA02908DF80C10009255
S3150800718005214022012009F00DFF05B05DF804FB3A
S31508007190E02605081FB5074A0346039203AA00928C
S315080071A04FF440714122012009F0FCFE05B05DF85C
S315080071B004FB00BF010221211FB5094903460868DF
S315080071C0097902AA02908DF80C1000924FF44071CA
S315080071D04022012009F0E6FE05B05DF804FB00BF79
S315080071E0F42605081FB5094903460868097902AA5D
S315080071F002908DF80C1000924FF440714322012042
S3150800720009F0D0FE05B05DF804FB00BFF4260508BA
S315080072101FB5094903460868097902AA02908DF83C
S315080072200C1000924FF440714222012009F0BAFE78
S3150800723005B05DF804FB00BFE82605081FB5064A39
S315080072400346039203AA009201220821104609F078
S31508007250A9FE05B05DF804FB010121211FB5074A07
S315080072600346039203AA00924FF4407108220120B4
S3150800727009F098FE05B05DF804FB00BF1212212143
S315080072801FB5094A0346106892880290ADF80C208B
S3150800729002AA00924FF440714B22012009F082FEA7
S315080072A005B05DF804FB00BFFA2605081FB5074AB6
S315080072B00346039203AA009201224FF44071104636
S315080072C009F070FE05B05DF804FB00BF010121213D
S315080072D01FB5074A0346039203AA00924FF440716A
S315080072E00422012009F05EFE05B05DF804FB00BF2C
S315080072F0010121211FB5094903460868097902AA2F
S3150800730002908DF80C1000924FF44071072201206C
S3150800731009F048FE05B05DF804FB00BFFB2605082A
S315080073201FB5074A0346039203AA00924FF4407119
S315080073300A22012009F036FE05B05DF804FB00BFFD
S31508007340020221211FB5094903460868097902AADC
S3150800735002908DF80C1000924FF440710022012023
S3150800736009F020FE05B05DF804FB00BF01270508FB
S315080073701FB5094903460868097902AA02908DF8DB
S315080073800C1000924FF440710622012009F00AFE03
S3150800739005B05DF804FB00BF012705081FB5064ABE
S315080073A00346039203AA009208210022012009F04D
S315080073B0F9FD05B05DF804FB010221211FB5074A56
S315080073C00346039203AA00924FF440710322012058
S315080073D009F0E8FD05B05DF804FB00BF01022121B4
S315080073E01FB5094903460888897803AAADF80C0031
S315080073F08DF80E10009206214222012009F0D2FDD6
S3150800740005B05DF804FB00BF072705081FB503AAEA
S31508007410009205220749034608888978ADF80C00CA
S315080074208DF80E100120114609F0BCFD05B05DF877
S3150800743004FB00BF0B2705081FB508490346086863
S31508007440097902AA02908DF80C10009208210222EE
S31508007450012009F0A7FD05B05DF804FB0127050822
S315080074601FB5094903460868097902AA02908DF8EA
S315080074700C1000924FF440710922012009F092FD88
S3150800748005B05DF804FB00BF0F2705081FB50A4ABB
S315080074900346106802A9029090889279ADF80C000C
S315080074A08DF80E2000914C224FF44071012009F00E
S315080074B079FD05B05DF804FB152705081FB50949D0
S315080074C003460868097902AA02908DF80C10009202
S315080074D04FF440710222012009F064FD05B05DF801
S315080074E004FB00BF1D2705081FB5094903460868A0
S315080074F0097902AA02908DF80C1000924FF4407197
S315080075000522012009F04EFD05B05DF804FB00BF19
S315080075101D2705081FB5094903460888897803AA5F
S31508007520ADF80C008DF80E100092082106220120F5
S3150800753009F038FD05B05DF804FB00BF23270508F0
S315080075400A46014938F0F4BF774005080A4601495A
S3150800755038F0EEBF6C4005080A46014938F0E8BF26
S31508007560674005080A46014938F0E2BF6240050847
S315080075700A46014938F0DCBF5D4005080A4601495C
S3150800758038F0D6BF504005080A46014938F0D0BF42
S31508007590414005080A46014938F0CABF3C4005087B
S315080075A00A46014938F0C4BF334005080A4601496E
S315080075B038F0BEBF2A4005080A46014938F0B8BF68
S315080075C0214005080A46014938F0B2BF1A400508A5
S315080075D00A46014938F0ACBF0F4005080A4601497A
S315080075E038F0A6BF044005080A46014938F0A0BF8E
S315080075F0F93F05080A46014938F09ABFF03F0508E1
S315080076000A46014938F094BFE53F05080A4601498C
S3150800761038F08EBFE23F05080A46014938F088BFB0
S31508007620DF3F05080A46014938F082BFDC3F0508F6
S315080076300A46014938F07CBFD93F05080A46014980
S3150800764038F076BFD63F05080A46014938F070BFBC
S31508007650D13F05080A46014938F06ABFCC3F0508FC
S315080076600A46014938F064BFC33F05080A4601497E
S3150800767038F05EBFB83F05080A46014938F058BFDA
S31508007680B33F05080A46014938F052BFAE3F050820
S315080076900A46014938F04CBFA93F05080A46014980
S315080076A038F046BFA43F05080A46014938F040BFEE
S315080076B0993F05080A46014938F03ABF8E3F050842
S315080076C00A46014938F034BF873F05080A4601498A
S315080076D038F02EBF843F05080A46014938F028BF0E
S315080076E0813F05080A46014938F022BF763F05085A
S315080076F00A46014938F01CBF713F05080A46014988
S3150800770038F016BF683F05080A46014938F010BF29
S315080077105F3F05080A46014938F00ABF5A3F05087F
S315080077200A46014938F004BF4F3F050808B5044822
S315080077303AF070FE38F0BDFCBDE8084000F01CB811
S31508007740084A050801483AF065BE00BF084A050818
S3150800775007B5082039F00EFB02238DF80030054BDB
S315080077606846019339F0C4F9082003B05DF804EBC4
S3150800777039F00BBB006A18102DE9F043424D89B069
S3150800778001AC0FCD0FC495E8070084E80700012473
S315080077903E4F3F483AF03EFE3E4E38463AF03AFEF5
S315080077A03D4B304601A903938DF8124002F02EFE98
S315080077B0234604220321022002F02EFC022122463F
S315080077C00846002302F028FC23462146042202200C
S315080077D002F022FC042200212346022002F01CFCAF
S315080077E02E4D2F4B05F50059C5F834374FF00213C7
S315080077F0C5F8303703F58033C5F838371C234FF4FE
S315080078004870C5F8203708F04BF905F5805814205C
S31508007810C9F8A04008F044F92320C8F8A04008F0A9
S315080078203FF9B9213046C9F8A04039F0F5FB0023E5
S3150800783003211A460220C8F8A04002F0EDFB0023F7
S3150800784002211A46084602F0E7FB23462146002293
S31508007850022002F0E1FB002223461146022002F034
S31508007860DBFB304602F0B0FD00233846C5F8343756
S31508007870C5F83037C5F83837C5F820373AF0CDFDA2
S3150800788009B0BDE8F08300BF80400508FC4905083B
S31508007890084A050800C0055000127A0000C00350C7
S315080078A0020001000348044A0449121A921039F0EA
S315080078B06BB900BF706100081C630008284E0020E1
S315080078C008B500F02FF8FFF7EDFF124B12498B426F
S315080078D012D30020114B12498B4218D3FFF724FA12
S315080078E0186850F82240586840F8224001329868D3
S315080078F08242F5D30C33EAE70022F8E71C6844F81D
S31508007900220001325C68A242F8D30833E4E7002279
S31508007910F8E700BF7CF6050888F6050888F6050826
S3150800792088F605084FF48041124B134A70B59A60E1
S31508007930D3F88820114D42F47002C3F88820104A03
S3150800794005F5005491664FF0FF3222660D4A6266CD
S315080079500222C3F8D020BFF34F8FBFF36F8F4FF4C7
S315080079604036002005F014F90020E66005F0F4F82A
S315080079702E6170BD00ED00E0006000080080004444
S3150800798000900050F7FF3700014B1868704700BF9A
S315080079901C500020014B1860704700BF1C50002087
S315080079A0084B1B6F03F00703022B04D0032B05D0EB
S315080079B0012B05D0FEE7044B18687047034BFBE71D
S315080079C003487047008000501C50002024500020B7
S315080079D0002D310108B5FFF7E3FF054B1B6FC3F315
S315080079E003330133B0FBF3F0024B186008BD00BF48
S315080079F000800050185000200048704700B4C404A6
S31508007A00014B1868704700BF24500020054B1860CA
S31508007A10054B1B6F03F00703032B01D1FFF7DABFF2
S31508007A20704700BF2450002000800050004870476F
S31508007A30002D31014FF0B4439868C0F304400C2878
S31508007A400AD8DFE800F00B0909090909072119090D
S31508007A501B1D1F000F487047002070479B6803F0E6
S31508007A604073B3F1807F11D0B3F1007F10D00A4A7A
S31508007A70002B08BF104670470848704708487047EB
S31508007A8008487047084870470848704708487047CC
S31508007A9008487047405DC60000093D00C0EA21015C
S31508007AA080BA8C010048E801005A62020024F400FA
S31508007AB080841E0040420F00014B1868704700BFC3
S31508007AC0205000204FF000639B6A03F17842B2F51C
S31508007AD0C04F03D21968064A914203D000230370A7
S31508007AE083607047012202709A689B694260F7E7D3
S31508007AF007B0CD5E73B54F4B04461A781AB1022209
S31508007B001A7002B070BDCDE900220028F9D001260E
S31508007B101E7039F0B1F8484D484B18601DF096FDB7
S31508007B202B785BB900F042FE40B945480823454A20
S31508007B30454900681AF0AEFA00B92E70434B5A6EE2
S31508007B4062619B6E424AA3614FF480439366414B40
S31508007B505968E16140499960196E2160596E616002
S31508007B60D3F87011A160196CE160596C21613B4929
S31508007B70086C1864496C5964012151661B6E9C0493
S31508007B8041D5374AD368D807FCD4364B1A68531CF4
S31508007B903ED04FF480139340334A13664FF4007374
S31508007BA00426314C2666236639F02BF801300DD0B1
S31508007BB039F027F840F20113984207D04FF40053E2
S31508007BC023664FF480432366C4F870610823264C65
S31508007BD0684623664FF4805323664FF00063236696
S31508007BE04FF4002301A9636638F0EFFF009B236674
S31508007BF0019B63662B78002B83D0124B1A6822668A
S31508007C005B6863667DE7194AD368D907FCD4BCE785
S31508007C10174B1B78002BC1D14FF400720C4B5A66D8
S31508007C2003F5A6235B68002BB8D14FF480120E4BE0
S31508007C301A66B3E79143002092430020E818002013
S31508007C404C500020EC1800200071080000800050FD
S31508007C50009000500080004455CEAC0000C000548F
S31508007C600000044028500020009000440000045002
S31508007C709043002070B5224D04462E78012E02D07E
S31508007C8001232B7070BD0028FCD038F0BAFF0130F4
S31508007C900BD038F0B6FF40F20113984205D0194BC5
S31508007CA0194A5E66D368DE07FCD42268174B1A6643
S31508007CB062685A66A268C3F87021E2681A64226983
S31508007CC05A64E269D00744BF00229A60104B1A68CA
S31508007CD0013207D10F4A127822B90F494968C907F4
S31508007CE048BF1A6062690D4B5A66A2699A661DF00A
S31508007CF0B5FC0B4B186838F0C5FF0023C1E700BF79
S31508007D009143002000900040000004400080004499
S31508007D10285000209043002000C0055000800050E5
S31508007D20E8180020F8B54FF00066B36A03F1784208
S31508007D30B2F5C04F26D21A68144B9A4222D1144D76
S31508007D402C7814F0FD0402D000242046F8BD4FF428
S31508007D5080371048FFF7CEFE204604F019FF0E4B79
S31508007D602046DF6004F0F8FE0C4B1F61B36ADB693E
S31508007D70984704460748FFF77DFF002CE5D1012305
S31508007D802B70E1E74FF48174DFE700BF07B0CD5EE3
S31508007D9090430020C818002000A00044009000442A
S31508007DA013B5214B1B7803B9FEE700231F4CCDE919
S31508007DB000336A4608231E4920681AF06BF900BB8F
S31508007DC01C4AD2F84031D2F840211F2B4FF001034C
S31508007DD012D9203A9340019A1A43019208236A4617
S31508007DE0134920681AF00CF94FF00053124A1A602A
S31508007DF004F08EFE02B010BD9340009A1A4300921A
S31508007E00ECE70E4B9842EFD10A4AD2F84031D2F845
S31508007E1040211F2B4FF0010385BF203A9340934022
S31508007E20019398BF0093D9E7914300204C50002056
S31508007E3000710800008000440B020FF00BE000F010
S31508007E40034B5868C0F30800003818BF0120704774
S31508007E5000ED00E070B5D0B1C9B10E4E431E013930
S31508007E6013F8014F2046325D02F00302012A11F889
S31508007E70012F08BF04F12000B55C05F00305012DAC
S31508007E8008BF2032801A01D1002CE9D170BD01202B
S31508007E90FCE700BF73F5050810B40A6808461378AE
S31508007EA0022B10D014213023147913FB041307492D
S31508007EB05B585179CB40DB4303F0010313705DF83F
S31508007EC0044BFFF735B85DF8044B704730C00350D4
S31508007ED0F7B50468054624483AF09CFA00230122BF
S31508007EE06179207902F098F814223023217913FB5E
S31508007EF001231E4A99586379D940C943A37901F0E9
S31508007F000101022B217017D138F071FF184A2B4650
S31508007F106179207900F0B8FBFF28024660790ED116
S31508007F202A46134900F0ECFB0123024661792079C1
S31508007F30CDE9003302F016F8002003B0F0BD0126A3
S31508007F402779002301460096384602F0CDF82A46DE
S31508007F500749607900F0D4FB00236179024620794D
S31508007F60009301963346E5E7084A050830C00350F2
S31508007F70997E000802681378022B24D01421302336
S31508007F80107913FB001310495B585179CB4091794E
S31508007F9003F00103012912D1508843EA40034FF642
S31508007FA0E07063F03F039BB2834202D111705380A5
S31508007FB070474FF6DF718B42F9D10021F6E711B908
S31508007FC083F001031370704730C0035013B50024C3
S31508007FD0294801943AF01EFA012304220321204677
S31508007FE002F01AF8204638F0E3FF0122234B052059
S31508007FF0C3F8442401A93AF008FA002839D1204BDD
S31508008000D3F8F02042F00102C3F8F020D3F8FC20A0
S3150800801042F08072C3F8FC201A4AA3F55D431A6041
S31508008020019B194A03F5D52303F2FC43B3FBF2F38C
S31508008030164A013B13610223C2F8F0304FF48073ED
S31508008040C2F804334FF06043114AC3F8B02F114AFF
S31508008050C3F8802ED3F8002E42F48072C3F8002E9F
S31508008060FF2283F82020D3F8002E22F48072C3F86A
S31508008070002E02B010BD00BF084A050800D0035004
S3150800808000ED00E0FF030040F8590D00000004E091
S3150800809055CEACC5090001004FF06043D3F8802ED9
S315080080A030B5D20715D501240B4D8440D5F8FC20F0
S315080080B042F08072C5F8FC20D3F8002E2243C3F89C
S315080080C0002E53F82020002AF0D003F820100020B4
S315080080D030BD1120FCE700BF00ED00E010B50446F6
S315080080E006483AF097F9A3782078B3FA83F304227E
S315080080F061785B0901F090FF002010BD084A050869
S3150800810010B5012243780178847830209A40054BCF
S3150800811000FB01331CB903F501531A6010BD03F5C2
S315080081208253FAE700C0035010B50122437801785C
S31508008130847830209A40054B00FB01331CB903F5BF
S3150800814082531A6010BD03F50153FAE700C00350C5
S315080081500122437801789A4030235943014B5A50FB
S31508008160704700BF40F003501021302302460078C4
S3150800817013FB001305495B585178CB4003F0010007
S3150800818093780BB980F00100704700BF30C00350E8
S315080081902DE9F04F9A46564B85B01B7806460F4692
S315080081A01546DDF83C909DF844B0DDF85080002B6C
S315080081B000F09780072A00F296800E9B002B00F0AD
S315080081C09280B9F1000F00F08E80129BB3F5006F14
S315080081D000F38980012803D1109B002B00F08380CF
S315080081E0444B03EB05131B7B002B7ED0424C10221D
S315080081F00021684644F06FF804EB45141022A7BB2B
S315080082003946204644F067F843F210036380BBF111
S31508008210000F03D1E37843F00303E370364A0E9B5D
S3150800822002EB451CCCE90193129B6901581E9DF887
S315080082304C30C0F30A0003F003039B0643EA001E12
S3150800824053582E48012E00EA03004EEA0003CDF8E3
S3150800825000A0535017D0B8F1000F2ED19CF8023069
S3150800826068F304138CF8023027E00021204644F016
S3150800827032F84FF444736380BBF1000FCED1E37834
S3150800828043F03003C9E713230CF1100ECCF80C3079
S315080082909CE80F008EE80F006FF00301DCF81C2045
S315080082A0109B61F39F02012FCCF81C20CCF81430E8
S315080082B003D1CCF81890CCF8043000270D4A2901D0
S315080082C002EB051342F80180159A28465A6069465A
S315080082D022469F605E7301F079FF384605B0BDE817
S315080082E0F08F0748FAE70748F8E70748F6E700BFB8
S315080082F093430020F4190020F41800200F80FFF3A0
S31508008300028000F0018000F0078000F038B5124BBB
S3150800831005461B78DBB1E0B138F0AEFC0F4A002306
S315080083201146147B54B92B6001251A0101EB03137E
S315080083301D738C5038F0A6FC204638BD0133082B37
S3150800834002F11002EDD138F09DFC0548F5E7054825
S31508008350F3E70548F1E700BF93430020F41900202E
S31508008360048000F0028000F0018000F038B538F093
S3150800837083FC002305460B4A147B6CB90133082B92
S3150800838002F11002F8D101F0CDFE074B28461C7009
S3150800839038F078FC204603E0284638F073FC03489A
S315080083A038BD00BFF419002093430020058000F073
S315080083B00D4B10B51B78044693B1072812D838F030
S315080083C05BFC0A4B03EB04131A7B2AB100241C73CB
S315080083D038F058FC204610BD38F054FC0448FAE73B
S315080083E00448F8E70448F6E793430020F419002008
S315080083F0068000F0028000F0018000F0154B13B5EE
S315080084001868002301908DF8043038F035FC124BBB
S315080084101C7824B138F036FC104802B010BD012291
S315080084201A7038F02FFC0E4B01A81C731C7783F8C2
S315080084302C4083F83C4083F84C4083F85C4083F832
S315080084406C4083F87C4008238DF8073001F08EFED7
S315080084502046E2E7EC40050893430020038000F03D
S31508008460F41900200A4A08B512785AB107280BD819
S31508008470084A02EB00131B7B43B1002101F068FE9A
S31508008480002008BD0448FCE70448FAE70448F8E772
S3150800849093430020F4190020028000F0018000F0C8
S315080084A0078000F00A4A08B512785AB107280BD88F
S315080084B0084A02EB00131B7B43B1012101F048FE79
S315080084C0002008BD0448FCE70448FAE70448F8E732
S315080084D093430020F4190020028000F0018000F088
S315080084E0078000F00A4A08B5127852B107280AD858
S315080084F0084A02EB00131B7B3BB101F0B3FE0020D8
S3150800850008BD0548FCE70548FAE70548F8E700BF4F
S3150800851093430020F4190020028000F0018000F047
S31508008520078000F00D4B1B7893B1072812D889B144
S315080085300B4B03EB00131B7B73B10A4B1A6D01231C
S315080085408340134214BF0123002300200B70704799
S31508008550054870470548704705487047934300200B
S31508008560F419002000000450028000F0018000F099
S31508008570078000F00B4A10B512780C4662B107283E
S315080085800CD859B1084A02EB00131B7B43B101F022
S315080085907BFE2070002010BD0448FCE70448FAE77B
S315080085A00448F8E793430020F4190020028000F0FD
S315080085B0018000F0078000F0184B2DE9F0411F6D8F
S315080085C05B6D1F4000D5FEE701260025144CDFF839
S315080085D05880374218D02368C8F85060A3B1A168FC
S315080085E0284601316268A1609847637B012B0BD14D
S315080085F050B90C4B03EB45131A7B60F341021A730F
S315080086001A7F60F341021A770135082D4FEA4606AC
S3150800861004F11004DDD1BDE8F08100BF000004506C
S31508008620F4190020F41800200020045070B5044600
S3150800863001250B4E04B970BD94FAA4F0B0FA80F087
S3150800864005FA00F306EB001224EA03045368002B2C
S31508008650F0D0117B11B191689847EBE79847E9E7A5
S31508008660741A002038B505460C4638F005FB00227A
S31508008670044B03EB05135C601A73BDE8384038F009
S3150800868001BB00BF741A0020F8B504460D4617460C
S315080086901E4638F0F1FA1CB9052D1AD0FF2421E040
S315080086A0012C05D1012D21D0032DF7D1042410E08A
S315080086B0022C07D1052D1BD0072D1BD0002DEDD17F
S315080086C0062406E0032CE9D1022D15D0052DE5D1A7
S315080086D00A240A4904F1100301EB03110123C1E935
S315080086E001760B7338F0CEFA2046F8BD0324F0E77E
S315080086F00724EEE70824ECE70924EAE7741A0020C1
S31508008700F8B505460E46174638F0B6FA134B2C460A
S31508008710D3F8242405F0FC0122FA05F3DB0712D569
S3150800872000230133DBB2042B04D1FF2438F0AAFA64
S315080087302046F8BDEC1804F003040C4422FA04FCA5
S315080087401CF0010FEDD1FF2CF0D00122044B03EBF6
S315080087500413C3E901671A73E8E700BF00C00350B2
S31508008760741A0020074BD3F82404D3F8202403F501
S315080087700053104000F0553020F05020C3F8200474
S31508008780FFF754BF00C00350074BD3F82404D3F8AF
S31508008790202403F50053104000F0AA3020F0A02052
S315080087A0C3F82004FFF742BF00C00350024B196804
S315080087B0024B186819F04ABB2C5000204C50002078
S315080087C070B59400224605460E4643F0C5FD431C87
S315080087D00AD058B922463146284643F052FD0028A9
S315080087E0034808BF002070BD0248FCE70248FAE7C4
S315080087F010E000F021E000F024E000F010B5044697
S3150800880043F0AEFD431C10D088B901F0D3FD2346D2
S3150800881020F003002044984201D1002010BD53F8EF
S31508008820042B0132F7D00348F8E70348F6E7034874
S31508008830F4E700BF0EE000F021E000F024E000F0CD
S3150800884008B538F00EFA014B186008BD64230020FD
S31508008850014B186838F009BA64230020044BD3F892
S315080088608420D206FBD4D3F88400C0F38110704765
S31508008870004000502E4B98424AD022D82D4B9842A1
S3150800888040D014D82C4B984239D00AD82B4B984252
S3150800889032D02B4B98422FD02A4B98422CD000200E
S315080088A07047294B9842FAD1284B186F7047284BC6
S315080088B098422AD0274B9842F1D1244BD3F880000E
S315080088C07047254B98422BD009D8244B984223D081
S315080088D0234B9842E3D11D4BD3F88C007047214BAC
S315080088E0984221D003F5740303F510539842D6D164
S315080088F0164BD3F898007047144B986D7047134B76
S31508008900586E7047114B586F7047104B986F7047E9
S315080089100E4BD3F8840070470C4BD3F88800704789
S315080089200A4BD3F890007047084BD3F89400704769
S315080089300048E8010024F400C0CF6A0080841E00C5
S3150800894000093D0040420F00405DC6000080E00F70
S31508008950C0EA210180BA8C01007E560380D5430205
S31508008960006CDC020090D00338B5104B0546D3F8EE
S3150800897080300C4603F00303022B0BD0032B0DD0DB
S31508008980012B0FD1FFF70CF80E2305B1286004B1AF
S31508008990236038BDFFF74EF80723F6E7FEF7F4FF26
S315080089A00623F2E700231846EFE700BF00800050D1
S315080089B038B5184B0546D3F820010C4600F00700D9
S315080089C0062823D8DFE800F0040A0E16121A1E003D
S315080089D0012305B1286004B1236038BDFEF7D4FF32
S315080089E00523F6E7FFF70CF80323F2E7FFF722F86B
S315080089F00723EEE7FFF71AF80223EAE7FEF7C4FFB4
S31508008A000623E6E7FEF7FCFF0423E2E70023184601
S31508008A10DFE700BF0080005038B5174B0546D3F88E
S31508008A2028310C4603F00703013B052B20D8DFE865
S31508008A3003F003131B0F0B17FEF7A6FF052305B15B
S31508008A40286004B1236038BDFEF79EFF0623F6E7CB
S31508008A50FEF7F0FF0723F2E7FEF7D2FF0323EEE760
S31508008A60FEF7CEFF0423EAE7FEF7E0FF0223E6E778
S31508008A7000231846E3E700BF0080005073B50D4693
S31508008A800021114B0191D3F88041064604F00304F6
S31508008A90022C13D0032C0CD0012C13D101A8FFF7FC
S31508008AA087FF10240EB1019B336005B12C6002B01C
S31508008AB070BDFEF7BFFF07240190F3E7FEF7B6FF88
S31508008AC00190EFE70C46EDE700800050002337B52C
S31508008AD00193164B0546D3F820320C4603F00703DC
S31508008AE0042B21D8DFE803F0030B11161B00012322
S31508008AF00DB1019A2A6004B1236003B030BD00218C
S31508008B0001A8FFF789FF1223F2E7FEF793FF072371
S31508008B100190EDE738F046F80A230190E8E7FEF7FA
S31508008B20CBFF09230190E3E70023E1E7008000502B
S31508008B3038B5104B0546D3F840310C4603F003030D
S31508008B40022B0BD0032B0DD0012B0FD138F02AF8AE
S31508008B500A2305B1286004B1236038BDFEF7ACFFCF
S31508008B600923F6E738F021F80C23F2E70123002061
S31508008B70EFE700BF00800050002337B50193164B7E
S31508008B800546D3F860320C4603F00703013B032B76
S31508008B901FD8DFE803F0020E1914002101A8FFF719
S31508008BA007FF10230DB1019A2A6004B1236003B0B0
S31508008BB030BD002101A8FFF7BBFF1123F2E7FEF73E
S31508008BC039FF07230190EDE7FEF730FF02230190F6
S31508008BD0E8E70023E6E700BF00800050002337B52A
S31508008BE00193164B0546D3F894320C4603F0070357
S31508008BF0013B032B1FD8DFE803F0020E19140021EE
S31508008C0001A8FFF7D5FE10230DB1019A2A6004B119
S31508008C10236003B030BD002101A8FFF789FF1123A7
S31508008C20F2E7FEF707FF07230190EDE7FEF7FEFEE2
S31508008C3002230190E8E70023E6E700BF0080005022
S31508008C4038B5144B0546D3F800020C4600F0070069
S31508008C5004281BD8DFE800F003090D1115000123CD
S31508008C6005B1286004B1236038BD37F09BFF0A239D
S31508008C70F6E7FEF721FF0923F2E737F096FF0C2304
S31508008C80EEE7FEF7A7FE0F23800AE9E7002318465A
S31508008C90E6E700BF0080005038B5144B0546D3F808
S31508008CA008020C4600F0070004281BD8DFE800F08D
S31508008CB003090D111500012305B1286004B12360CD
S31508008CC038BD37F06FFF0A23F6E7FEF7F5FE0923EE
S31508008CD0F2E737F06AFF0C23EEE7FEF77BFE0F2379
S31508008CE0800AE9E700231846E6E700BF008000503F
S31508008CF038B5104B0546D3F840320C4603F003034B
S31508008D00022B0BD0032B0DD0012B0FD137F04AFFC6
S31508008D100A2305B1286004B1236038BDFEF7CCFEEE
S31508008D200923F6E737F041FF0C23F2E70123002079
S31508008D30EFE700BF0080005038B5104B0546D3F862
S31508008D4060310C4603F00303022B0BD0032B0DD026
S31508008D50012B0FD137F026FF0A2305B1286004B18D
S31508008D60236038BDFEF7A8FE0923F6E737F01DFF96
S31508008D700C23F2E701230020EFE700BF0080005034
S31508008D80B0F5207F1FD009D8B0F5007F15D003D8DD
S31508008D9068B1B0F5C07F0AD000200CE0B0F5607F5E
S31508008DA0FAD10B4BD3F88000C0F3011003E0084B4F
S31508008DB0186FC0F3033001307047054BD3F89000A5
S31508008DC0C0F30460F7E7024B186FC0F38020F2E7A0
S31508008DD00080005002464FF48030104B10B598665C
S31508008DE00020FFF7CDFF504341F671320C4BDC698A
S31508008DF0DA635A6804F4803422F4401259B90949EE
S31508008E00884294BF00200120000502435A600CB135
S31508008E100022DA6310BD0449F2E700BF0090005053
S31508008E2000000350005A6202002D3101430905D0A3
S31508008E30012B0CD0022B084B18BF002300F01F0093
S31508008E4039B103F58053012282401A607047034BFB
S31508008E50F4E703F50053F6E7688000506480005095
S31508008E601FB5002180280446CDE9001100F0A58031
S31508008E7035D85E2846D85E2844D8DFE800F0A243F5
S31508008E8043434343434343434343434343434343A4
S31508008E904343434343434343434343434343A2AACE
S31508008EA0A2AABABABABABAAAC44DDA714DAAAAAA75
S31508008EB04343434343434343AAAAAA79E4AA434301
S31508008EC04343434343434343434343BAA2A2A2DF34
S31508008ED04D4DE9885EBF434343434399A200B0F52D
S31508008EE0B06F00F090802DD8B0F5207F71D00CD8E7
S31508008EF0B0F5C07F65D0B0F5007F65D0B0F5807F4E
S31508008F0000F08680009804B010BDB0F5607F6BD085
S31508008F100DD8B0F5407FF5D1FEF75CFD02464FF45B
S31508008F202070FFF72DFFB2FBF0F252085AE0B0F5B9
S31508008F30806F5ED0B0F5A06FE4D100216846FFF7D8
S31508008F40C5FDDFE7B0F5106F78D016D8B0F5E06F3D
S31508008F5079D00AD8B0F5C06F6BD0B0F5D06FD1D143
S31508008F6000216846FFF76CFECCE7B0F5F06FC9D173
S31508008F7000216846FFF7E0FEC4E7B0F5406F3DD034
S31508008F8013D8B0F5206F63D0B0F5286FBAD1002199
S31508008F90324B0391D3F8703203F00303012B02D14D
S31508008FA003A8FFF7C5FD039B3CE0B0F5486FA9D1C0
S31508008FB000216846FFF712FEA4E7FEF7F1FC0090D1
S31508008FC0A0E7FEF707FDFAE7FEF7EAFC02462046A9
S31508008FD004E0FEF7FFFC02464FF42070FFF7D0FED0
S31508008FE0B2FBF0F200928DE701A8FFF7BDFC019AEB
S31508008FF0EDE700216846FFF7DBFC83E700216846BA
S31508009000FFF70AFD7EE700216846FFF737FD79E797
S315080090104FF0E02302911B695B0705D5FEF7DAFCE2
S315080090200290029B00936DE703A902A8FFF780FD53
S31508009030F7E700216846FFF77BFD63E700216846EE
S31508009040FFF72AFE5EE700216846FFF751FE59E75B
S3150800905000216846FFF790FD54E700BF00800050E6
S3150800906008B58020FFF7FCFE034B98429EBF4FF4DD
S315080090708032024B1A6708BD005A620200A00050EF
S315080090801FB503460020B3F5807F019000F0C1802C
S3150800909064D85D2B55D84C2B07D82D2B48D8232BB5
S315080090A02CD8019805B05DF804FB4D3B102BF8D879
S315080090B001A252F823F000BF09920008A390000805
S315080090C0A3900008A3900008BF910008A390000889
S315080090D0A39000088D920008DD910008839100088E
S315080090E083920008A3900008A3900008A3900008A4
S315080090F0A3900008A390000897920008243B092B28
S31508009100CFD801A252F823F0099200080992000864
S31508009110099200080992000809920008A39000081D
S31508009120FF910008A39000089F9100083F9200084D
S315080091303D2B7FD03E2BB4D1002001A9FFF7D8FDE7
S31508009140AFE7802BADD1594B1B6F03F00703013BEB
S31508009150032BA6D8DFE803F0514E858DB3F5F06FE3
S3150800916068D021D8B3F5B06F49D00FD8B3F5607F72
S3150800917000F0838095D3B3F5806F45D0B3F5A06F23
S315080091808FD1002001A9FFF7A1FC8AE7B3F5D06FBC
S3150800919055D0B3F5E06FCFD0B3F5C06F81D10020BD
S315080091A001A9FFF7C5FC7CE7B3F5206F6ED00BD895
S315080091B0B3F5086F48D0B3F5106F7FF472AF00208F
S315080091C001A9FFF769FD6CE7B3F5406F59D0B3F510
S315080091D0486F60D0B3F5286F7FF463AF334BD3F88D
S315080091E0703203F00303012B5AD0022B0CBF152350
S315080091F0002300E00523019353E70223FBE7002041
S3150800920001A9FFF73BFC4CE7002001A9FFF7D0FBBB
S3150800921047E74FF0E02302901B695B0705D5FEF789
S31508009220D9FB0D230393039BE5E703A902A8FFF7E0
S315080092307FFCF8E7002001A9FFF77EFD31E7002053
S3150800924001A9FFF7FDFC2CE7184BD3F8003103F012
S315080092500303022B07D0032B09D0012B0BD1FEF7F2
S31508009260CFFB0323C7E7FEF727FC0923C3E737F03D
S3150800927097FC0823BFE70123BDE701A9FFF774FBA5
S315080092800FE7002001A9FFF7C7FB0AE7002001A99D
S31508009290FFF772FC05E7002001A9FFF79FFC00E72E
S315080092A0002103A8FFF744FC1123A4E7008000501F
S315080092B04FF48032074B0849586E03F580535A66B7
S315080092C04B6A23F001034B62C3035CBF034B5A6628
S315080092D0704700BF0080005000C0075000A0005033
S315080092E038B504468020FFF7CBFE032800F08380BC
S315080092F04FF48012524B4FF0A0615A6645F60E02A3
S31508009300504BC3F88020504A91624FF4803102F5E1
S31508009310805291629A6DD203FCD4996D11F0804106
S31508009320FBD1D4E90002120542EA0062E07B02435F
S31508009330207B42EA0042607B42EA0032A07B42EA96
S3150800934080121A619869D4E90452120642EA8562C3
S3150800935000F000400243A07EE57E0243207E42EAFA
S315080093600042607E42EA00229A611A6AE06922F0A7
S315080093700F0242EA8502354D00283DD11A6294F85B
S315080093802420996A94F82000D200294042EA401223
S315080093900A4394F8211042EA011242F480329A6292
S315080093A02B49284A936D31EA0303FBD14FF08071AC
S315080093B0254881621369A56823F4700343EA0553B7
S315080093C013614FF00043836194F822300BB9214BA7
S315080093D0996294F823303BB94FF480321D4B9A6258
S315080093E0184A936D5B00FCD494F825301BB1154BD5
S315080093F0194AC3F8802038BD024342F00802022801
S315080094001A6208D119614FF40852996113484FF44A
S315080094107F4137F035FD0B4994F822308A6A94F873
S3150800942020001B062A4043EA4013134394F82420DD
S3150800943043EAC20394F8232043EA02438B62D3E744
S31508009440009000500040005A0050005AC7FFFEFE28
S31508009450030001000060005AF1A7FFFF3440005ADC
S31508009460014B93F900007047AB550020F0B5D0E9E1
S3150800947001434FF400061A4A4178057856664FF4B8
S31508009480D156022702F5B8325662164E4F29776032
S315080094904FF0010728BF4F2106F5805677601669F9
S315080094A0F603FCD441EA052151611B01417B43EADD
S315080094B004230B43017B43EA41039360C37B817B0F
S315080094C01B0143EA4113417C0B43017C43EA4103F8
S315080094D05360837C13B16FF4D1535362F0BD00BF60
S315080094E00090005000100250014B1880704700BFD2
S315080094F066550020014B1880704700BF6455002050
S315080095004FF4800208B5184B5A660223174A53606F
S31508009510936813F48033FBD1012822D1FEF770FA41
S31508009520134B984215D003F5122303F5F8639842B6
S3150800953013D0104B00EB8002400AB3FBF0F3520A3B
S315080095400A49CA620B6301234B620022074B5A6021
S3150800955008BD45F67A13084AF2E745F61A03074A9C
S31508009560EEE75362F1E700BF00900050004002505A
S3150800957000F0490264666666D8B80500BBCF0500E8
S31508009580B0F5207F10B50C465DD008D8B0F5007F41
S315080095904ED003D8C0B1B0F5C07F15D010BDB0F518
S315080095A0607FFBD12C4B4C1ED3F8FC202B4912F0C4
S315080095B0807F4FEA041427D1D1F8803023F0300396
S315080095C02343C1F88030E9E737F069FC37F075FCCA
S315080095D04FF48031224B214A1967136F013C23F45B
S315080095E0704343EA04331367FEF7F4F90446FFF7BA
S315080095F035F9C0F10201204637F059FC00F042F86F
S31508009600BDE81040FFF72CBDD3F8FC2022F080728D
S31508009610C3F8FC20D1F8802022F030022243C1F89A
S315080096208020D3F8FC2042F08072C3F8FC20B5E70E
S315080096300A4A4C1ED2F8903023F0F85343EA0463E2
S31508009640C2F89030AAE7054A4C1E136F23F48063CC
S3150800965043EA84231367A1E700ED00E00080005089
S315080096600090005008B50121022000F06DF937F08E
S3150800967016FC37F022FC4FF48032014B1A6708BDFE
S315080096800090005008B54FF4C070FFF7E9FBBDE83D
S3150800969008400449884294BF012102214FF42070F2
S315080096A0FFF76EBF80F0FA024FF4C02270B5054688
S315080096B0FFF7E0F8314B04465A6603F598335A68C3
S315080096C0012A04D12E494A605A689207FCD48020A0
S315080096D0FFF7D6FC052807D137F0E1FB37F0EDFB9D
S315080096E04FF48032254B1A67264B24F040749D426E
S315080096F030D0254B9D4230D0FEF746F985420646C6
S3150800970003D90121284600F05FF9204BDA6812F0E8
S31508009710060FFBD199689C609A68624012F4F81F9C
S315080097201ED12846FEF736F98020FFF7A9FC052842
S315080097300DD1FEF74FF90446FFF790F8C0F1020184
S31508009740204637F0B4FBFFF79DFFFFF789FCAE42D2
S315080097500CD270BD44F00074CEE744F08074CBE7B9
S3150800976080209960FFF78CFC052805D0BDE870407D
S315080097700121002000F028B93546DAE700900050AC
S3150800978000E0015040420F0080841E000000015096
S31508009790304B314A984251D020D8A3F5B703A3F5E8
S315080097A05863984246D00DD82C4B984231D02C4B52
S315080097B0984239D02B4B4FF4002198421DD00023F4
S315080097C0516622E0284B4FF400219842F7D1274BE7
S315080097D0D3F8BC30516623F0407316E0244B984208
S315080097E030D0244B984231D0234B4FF40021984275
S315080097F0E5D11E4BD3F8C830ECE71C4BD3F8A030A4
S31508009800516623F0407343F000734FF0B4429360FF
S3150800981070474FF40021154BD3F8A030516623F05A
S31508009820407343F08073F0E7104BD3F8A0304FF441
S315080098300021CFE70D4BD3F8B830F8E70B4BD3F838
S31508009840C030F4E7094BD3F8CC30F0E7074BD3F830
S31508009850D030ECE7C0EA21010090005080841E0059
S3150800986000093D0040420F000024F4000080E00F8C
S315080098700048E801005A620280BA8C01024A536B1A
S315080098800342FCD1704700BF00400950044A4178A2
S31508009890536F23F4407343EA01235367704700BFAD
S315080098A0004000500E4A10B51369044643F00403FD
S315080098B0136105F00BF937F01CFB0A4B5B6E5B0175
S315080098C042BF094B094AC3F8202430BF37F012FBC0
S315080098D005F036F91CB9BDE81040FEF77BB810BD97
S315080098E000ED00E00080005000E003500000FF0F8C
S315080098F00C4A10B51369044643F0040313610A4B76
S315080099005B6E5B0142BF094B094AC3F8202405F088
S31508009910DDF830BF05F014F91CB9BDE81040FEF7B4
S3150800992059B810BD00ED00E00080005000E003507B
S315080099300000FF0F034A0179D36E23F030030B436F
S31508009940D366704700400050F8B504461C4BD3F860
S315080099508420D106FBD4D3F88430C3F381139C4208
S315080099602CD0FEF71DF8012C064602D1214637F009
S315080099709EFA37F076F94FF00072124B07465A6690
S31508009980204637F0BAFA4FF480630D4D621E9340B5
S315080099902B676B6E9A0103D4D5F884309B060AD5DB
S315080099A0384637F062F9022C08D13046BDE8F8404F
S315080099B0002137F07CBAD5F88430EAE7F8BD00BF55
S315080099C0004000500060005010B50C4608B9FDF77D
S315080099D0E7FF074B21461B783BB1064B984204D854
S315080099E00120BDE81040FFF7AFBF0220F9E700BF2E
S315080099F094430020005A62020278034B012100209A
S31508009A001A70FFF7E1BF00BF944300204FF00042F1
S31508009A1038B5244B244C5A664AF6CD33656C014654
S31508009A2005F00105236428BB0120FFF727FF6368BB
S31508009A30DB0715D51D4B586008461D4B226BD20710
S31508009A400CD4984208D1072415B1174B194A1A6441
S31508009A503EF028FD204638BD0130EFE79842F2D0A7
S31508009A600024F1E70132236B13F0080305D08A427C
S31508009A70F8D1E8E700220E49F5E78A42E3D020212B
S31508009A800A4A91620121A2F5805251600649084AA4
S31508009A90886A800603D49342D5D00133F8E7934207
S31508009AA0DDE700BF009000500040095000600950F3
S31508009AB040420F003254FFFF4FF0004238B5164BB4
S31508009AC001465A664AF6CD33144C154A656C23642A
S31508009AD043780B205B0043F00103D363FFF7CEFE08
S31508009AE063688A7823F4F87343EA02136360CA78D2
S31508009AF04B7943EA0223A3600A798B7943EA022366
S31508009B0023610878FFF782FFEB0744BF054B236400
S31508009B103EF0C8FC012038BD0090005000400950B6
S31508009B20004000503254FFFF4FF00042124B70B510
S31508009B305D6E03F580535A664AF6CD3304460F49DF
S31508009B4080204E6C0B64FFF799FE0B6A23F00F0317
S31508009B500F2C94BF234343F00F030B62F30744BF54
S31508009B60074B0B64002DA2BF4FF00042054B5A6607
S31508009B703EF098FC70BD00BF0080005000400950C0
S31508009B803254FFFF00A000504FF00042104B70B552
S31508009B905D6E03F580535A664AF6CD3304460D4981
S31508009BA080204E6C0B64FFF769FE0B6A23F4F853AA
S31508009BB043EA04230B62F30744BF074B0B64002DEB
S31508009BC0A2BF4FF00042054B5A663EF06BFC70BDD3
S31508009BD000800050004009503254FFFF00A000509A
S31508009BE010B537F08FF9042300F5805100F50052BF
S31508009BF00B6113610B6113610B6113610B611361D7
S31508009C00202341F2020103610023C360836041619E
S31508009C104FF4A0218361836541620549C3610362EC
S31508009C208362C36243630365D164036310BD00BFE7
S31508009C30FF3F0D0370B505461446084641B9354B36
S31508009C409D4218D0344B9D4208BF5720FFF708F9AC
S31508009C50AB6813F0010F6B6830D0B0FBF4F4D8078B
S31508009C6004F1FF344FEA046407D42B6923F07F43D9
S31508009C7023432B6170BD5620E8E72821284637F094
S31508009C803DF9AB6C990715D1AB6CDA0714D4AB6CFC
S31508009C9013F0020F14BF06260026284637F032F9BD
S31508009CA02B69314623F07F4323432B61BDE870407F
S31508009CB037F05FB90526F0E70926EEE7AB6DDB0757
S31508009CC0AB6848BF640003F0E003402B1BD004D800
S31508009CD0DBB1202BCED1082304E0602B17D0802BD4
S31508009CE0C8D1012363434101B1FBF3F20B4B203A80
S31508009CF0284603EAC202012137F000F92A63BDE8C3
S31508009D00704037F0FBB80623ECE71023EAE7042394
S31508009D10E8E700BF0000015B00000A50F8FF7F007B
S31508009D202DE9F8439846436804460E4617461BB184
S31508009D3040F6FF7137F0E2F82046FFF751FFF18948
S31508009D40737B62690B43318A22F44C520B4322F02F
S31508009D500F0213436361A268317E337B22F080428F
S31508009D6022F0E2020B4313437269D6F808901343B4
S31508009D70A360B9F1000F03D1A36843F00043A360C1
S31508009D80F069002874D0857A037A6D04A26845EADA
S31508009D9083556D4B13401D43838803F4C0431D430D
S31508009DA0437845EA8305437B45EAC305837B45EA51
S31508009DB00315837845EA8325A560D0E90432E5686A
S31508009DC01343624A2A401343827943EA8223C279BB
S31508009DD043EA4223E36003785D4A012B14D1E36822
S31508009DE043F00403E360944200F09280594B9C428E
S31508009DF00CBF01234FF0FF335B0103F1A04342F28E
S31508009E00944203F5703314E0032B7BD1E36843F0E7
S31508009E100403E360944279D04E4B9C420CBF012365
S31508009E204FF0FF3341F294425B0103F1A04303F57F
S31508009E30703302259D50437A04F5805293621BB114
S31508009E40E36843F40063E360C37A5BB1E36843F411
S31508009E500043E3603E4B9C425CD1037B3E4A03F0E1
S31508009E600F035367636AC27B23F0030313436362DA
S31508009E703FB197F8203004F58050002B54D00123C9
S31508009E800362B8F1000F27D004F5805011B14FF4E2
S31508009E90004383652E4BB8F822109C4298F821306F
S31508009EA04FD02C4A94420DD10122112B34BF0127E1
S31508009EB002272A4DB1F5006FAF5494BF0127022738
S31508009EC0274DAF54A26D0B4322F4F95222F01E021D
S31508009ED01343A365012383650521204637F02CF833
S31508009EE0B9F1000F03D04A467168FFF7A3FE204672
S31508009EF0317837F03EF8A36CDB4313F4405FFAD1B0
S31508009F00BDE8F883023B012B84D96CE7002389E777
S31508009F10002371E70F4B9C4201BF037B0E4A03F0F7
S31508009F200F03C2F880309DE7E26997F8223097F868
S31508009F30215022F009022B43134343F00103C36166
S31508009F409FE70022B1E700BFE39BBDFFFFF9F0875B
S31508009F500000015B00000A50009003509743002060
S31508009F6095430020072A2DE9F041154698464FF0FB
S31508009F70030401F003072DD89600B44000FA06F250
S31508009F8021461C4837F005F821461B4807FA06F211
S31508009F9036F0FFFF194B1A499DF81800B8F1000F63
S31508009FA018BF1946012303FA05F50D60154B164926
S31508009FB0002818BF0B461D60144B9DF81C00C3F8FB
S31508009FC02054103103F22443002818BF0B461D60A5
S31508009FD0BDE8F081A2F10806B600B44000FA06F220
S31508009FE021460B4836F0D5FF21460A4807FA06F2FD
S31508009FF0CEE700BF00C4035008C4035010D4035072
S3150800A00010E4035014E4035014D4035000E0035042
S3150800A01004C403500CC403502DE9F04105460F460D
S3150800A0201E4690464AB101233022194C8B4002FB4A
S3150800A030004436B304F5825423600F21072F05EB3D
S3150800A040450388BFA7F108044FEA0313114895BFD3
S3150800A050BC00A40004330C3308FA04F2A1401844E7
S3150800A06036F097FFB8F1000F09D101233021084ACD
S3150800A070BB4001FB05223EB102F582521360BDE8E2
S3150800A080F08104F50154D7E702F50152F6E700BF5F
S3150800A09000C0035030C00350104B0140D3F83024A1
S3150800A0A022EA0002C3F83024D3F830241143C3F857
S3150800A0B03014D3F82C240243C3F82C24084AD36E50
S3150800A0C003F03003202B1FBFD36E23F0300343F079
S3150800A0D01003D366034BC3F82004704700C003502F
S3150800A0E00040005000E0035038B514461D460322D0
S3150800A0F083F00103FFF790FF012004F11001884067
S3150800A10005FA01F1FFF7C8FF9DF81010034B044A42
S3150800A110002918BF1346186038BD00BF24E4035051
S3150800A12024D4035010B5152002F004FD0024FF22A4
S3150800A130064B21465C6520209A625C60FEF776FE37
S3150800A1402146BDE810402120FEF770BE00000450ED
S3150800A150044A054B002908BF1346012282401A60AB
S3150800A160704700BF401004504020045010B501212C
S3150800A17004462020FEF75AFE01212120FEF756FE4E
S3150800A1800122114B15205A60227812069A606178CE
S3150800A190A27842EA01429A61FF229A6200229A63F1
S3150800A1A01A644FF000425A654FF0FF3203F5005328
S3150800A1B01A6502F0EDFC1520E17802F0F7FCBDE81F
S3150800A1C01040152002F0C8BC00000450F8B501255F
S3150800A1D0C3B2D1F800E091F80AC00F7B0C469D4047
S3150800A1E0CB7A1D491D4E0D65810001F1A04101F58F
S3150800A1F08821C1F804E04FF0300E0EFB00601B0505
S3150800A200617B43EA0C4343EA475322F003020166A3
S3150800A210C365026736F030FD114B5D65237A13B1CD
S3150800A220336C2B433364637A13B1B36B2B43B36339
S3150800A2302279A37943EA0243074A93616179E3796C
S3150800A24043EA014306498B61044B55639D64BDE8A7
S3150800A250F84036F017BD00BF002004500000045037
S3150800A2600010045010B50124C0B2844036F004FD35
S3150800A270044B5A6D22EA04025A659C62BDE81040F6
S3150800A28036F000BD0000045010B50124C0B2844069
S3150800A29036F0F2FC074BDA6A224208D15B6B9C4324
S3150800A2A00CBF0124002436F0EDFC204610BD002426
S3150800A2B0F9E700BF000004504FF48032054B9A6658
S3150800A2C041F6713203F51C33DA63012203F50053B4
S3150800A2D0DA6070470090005041F671320121064B52
S3150800A2E0DA6303F50052D1600022DA634FF4803254
S3150800A2F0A3F518339A6670470000035001383128D1
S3150800A3009ABF024B185C0020704700BF1141050830
S3150800A31038B5C2F30625044602F0070241B942EAF7
S3150800A320052242F440220634074B43F8242038BD60
S3150800A3301146284636F03DFE02462846FFF7DEFF60
S3150800A340163442EA0022EFE700800350044B1868EF
S3150800A350421C02BF034AD2F894001860704700BF37
S3150800A36050500020004000504FF48032064B5A6689
S3150800A37003F5E6239B69C3F38512827003F03F0257
S3150800A3801B0B4270037070470090005040F6B732BE
S3150800A390064B5B689BB293429FBF4FF47A72B3FB3E
S3150800A3A0F2F3034AD05C88BF002070470080E00FB4
S3150800A3B0434105080120034B9B680A3303F01F033A
S3150800A3C0984070470080E00F012100F5805310B5D2
S3150800A3D0596040F6AA6341F2050243610023094C1D
S3150800A3E08360C365C26000F500520361C361C3643C
S3150800A3F09464054C8365A04204BF036543655160B8
S3150800A40010BD00BFFFFF010000C0055038B50D465E
S3150800A410FFF7DAFF012200F580535A602B8AA97BE1
S3150800A420826843F0010343EA812313438360836808
S3150800A4302A7D044643EA42738360AB7C5BB1194BC1
S3150800A440984202BFEA7CA3F51033C3F8C821C36D4E
S3150800A45043F08003C3652B7B2046D5E9011243F4FC
S3150800A4608053E36036F0C8FD6B7B0BB11023636144
S3150800A4706B7D1BB1A36843F48033A360AB7D1BB12E
S3150800A480A36843F40043A360EB7D2A7E1B071205ED
S3150800A49003F0E04302F4E0021343A3652B786361FB
S3150800A4A038BD00BF00C00550034B5A68D20702D515
S3150800A4B0DA69002AF9D1704700800A50054B9A6874
S3150800A4C09107FCD45A689207F9D4DA69002AF6D1BA
S3150800A4D0704700BF00800A5008B5FFF7E5FF022263
S3150800A4E0014B1A6108BD00BF00800A5008B5FFF786
S3150800A4F0E5FF0122024B03F580514A601A6108BD47
S3150800A50000800A5008B5044B5968012903D1FFF7A2
S3150800A510E3FF024B596008BD00800A5000A00A50AC
S3150800A52010B5064CFFF7CAFF6368012B03D1FFF786
S3150800A530E9FFFFF7C3FF0378E36010BD00800A5008
S3150800A540B8B94A680B7812B1127843EAC2034A7856
S3150800A55043EA42038A6812B1127843EA82138A7878
S3150800A56043EA8203CA6812B1127843EA4223014ACF
S3150800A5709364704700800A5008B9014B59647047C4
S3150800A58000900A5008B9014B5964704700A00A5058
S3150800A59008B9014B1964704700A00A5010B9024B5C
S3150800A5A0186C70470020704700800A5048B911B1EE
S3150800A5B0012903D07047044BD86C7047024B186DBD
S3150800A5C070470020704700BF00800A5040B911B19B
S3150800A5D0012903D07047034BDA647047014B1A65AB
S3150800A5E0704700BF00800A5010B9024B586D70477B
S3150800A5F00020704700800A5038B50446054D3DF0E6
S3150800A60076FF0FCC0FC594E8030085E80300002009
S3150800A61038BD00BF6823002047F6FF739A42F0B59D
S3150800A6206FD002296FD8394B5B5C012B6BD8384D3C
S3150800A630DF0005EBC30415F83330A178012B13D1DD
S3150800A6400025E078401AA84202D80844C0B2F0BDF6
S3150800A650431B6668A0EB530336F913609642D4BFD2
S3150800A6601D4603F1FF30EEE760680028EFD0B0F929
S3150800A6700040944204DBB0F902409442B8BF144645
S3150800A68083883D44FF2B19BFC8224FF0280CB0F928
S3150800A6900620B0F908C0A2EB04030CBF0126002669
S3150800A6A093FBFCF333446E781BB29E4201DD002B0C
S3150800A6B001DA731E1BB24FF47A7C01339BB2071D75
S3150800A6C05D1E2DB24FEAC50E00EBC505EA88AD68DA
S3150800A6D09E4214FB025222EAE27202F15C02B2FBCB
S3150800A6E0FCF204DD37F8335001339542E8D200EB2B
S3150800A6F00E039888904228BF1046884238BF0846FD
S3150800A700A4E7FF20A3E70020A1E700BF464105080C
S3150800A710682300200229F0B555D82C4B585C01282F
S3150800A72051D82B4C04EBC00114F830004B680128B3
S3150800A7300FD1C8788C78904294BFC4EB0001C4EB63
S3150800A7400201001BCAB28242C8BF002233F91200B6
S3150800A750F0BD002B37D08878904202D3B3F90200B7
S3150800A760F6E7CC78B3F900009442F1D94C78998889
S3150800A770013CA1F1FF06714203F10405E4B27141FF
S3150800A78003F10C07CEB2B44216D805EBC1014FF45B
S3150800A7907A756A43B1F902404968521A04EBD471D2
S3150800A7A002EB610292FBF4F29042D1DBB3F90200AC
S3150800A7B09042CDDC10B2CBE737F831C04E1C944539
S3150800A7C0E3D33146DEE70348C2E700BF4641050842
S3150800A7D0682300200080FFFF08B50448FFF70CFF38
S3150800A7E0BDE8084001203DF0A7BE00BF4C41050862
S3150800A7F07FB50222084B0949CDE901234FF00073C2
S3150800A800CDE90313072301A94FF0FF3005933DF067
S3150800A810CFFE07B05DF804FB006A180000020600C8
S3150800A82008B5B0B14FF480620B4B9A6636F049FF13
S3150800A8304FF098435A6CD202FCD54FF48062586D9B
S3150800A840064B10F470209A6604D0BDE8084036F02E
S3150800A85067BC212008BD00BF0090005000A0005032
S3150800A8602DE9F0418CB08846DDE912761D4604468E
S3150800A870002847D0002945D0002F43D0002E41D0CC
S3150800A88013F00F033ED120482049A360002A08BFD1
S3150800A8900146E361C4E90013404609A936F03CFDC8
S3150800A8A068BB2046099936F003FF2946204636F04C
S3150800A8B0FFFE6946404600F0F7FA00BB69462046A7
S3150800A8C036F0E2FE404603A936F025FEB8B9204622
S3150800A8D003A936F0D9FE06970127204645F000550C
S3150800A8E006A90797089536F0CFFE204609A90996C6
S3150800A8F00A970B9536F0D2FE2046FFF791FF0CB06B
S3150800A900BDE8F0812120FAE70001000400010104F6
S3150800A9102DE9F04F97B0894690461F460546DDF863
S3150800A92080A0002800F0BB80002900F0B8803AB16A
S3150800A930229B002B00F0B380239B002B00F0AF80F6
S3150800A940BAF1000F00F0AB80219B002B00F0A78026
S3150800A95067B13C680026229B43440293464507D3C9
S3150800A96007B13C60002017B0BDE8F08F3C46F1E720
S3150800A9705CB1229B219A9B5D125D01345340239A58
S3150800A98004F00F0493550136E8E7A8EB060BBBF174
S3150800A9900F0F58D9434B4846C5E90034AC60EC6103
S3150800A9A013A936F0B9FC0028DDD1284613992BF0F7
S3150800A9B00F0B36F07DFE5946284636F079FE484696
S3150800A9C004A900F071FA0028CDD1284604A936F06A
S3150800A9D05BFE484607A936F09EFD0028C3D12846E7
S3150800A9E007A936F051FE012322992F4ACDF828A04F
S3150800A9F00B930C928A190D9228464BF000520AA91D
S3150800AA000E9303920F9236F03FFE28460DA936F0B4
S3150800AA103BFE239B039A99190123109111931292D5
S3150800AA20214A284610A9CDF84CA01493159236F061
S3150800AA3035FE284613A936F031FE2846FFF7F0FE04
S3150800AA405E4400288FD1229B03EB060B239B1E44F2
S3150800AA50029B5B4501D1464680E7ACB9219B22465D
S3150800AA60CDE900A3494610232846FFF7F9FE00283A
S3150800AA707FF479AF0AF1100212F8013D0133DBB217
S3150800AA8013700BB95245F7D1219A1BF8013B125D99
S3150800AA900134534006F8013B04F00F04D8E721209F
S3150800AAA061E700BF03030004100000202DE9F04F02
S3150800AAB097B0894615469A460446209FDDF8888051
S3150800AAC0DDF890B0269E002800F09D80002900F051
S3150800AAD09A80002E40F08A80002B00F09480B8F10E
S3150800AAE0000F0AD0219B002B00F08D80002A40F031
S3150800AAF09F80F10700F1878002E0002A40F08580F8
S3150800AB00FB1F062B7FD8524B0BEB05029A427AD8CD
S3150800AB100023504A4846C4E90023A360E36113A909
S3150800AB2036F0FAFB00285ED12046139936F0C0FDB0
S3150800AB30204646EA074136F0BBFD4146204636F038
S3150800AB40B7FD2946204636F0B3FD484601A900F070
S3150800AB50ABF9002847D1204601A936F095FD4846AD
S3150800AB6004A936F0D8FC00283DD14FF0010920464B
S3150800AB7004A936F089FD239B45F000550793219BD0
S3150800AB80CDF82090204609950DA90A9347F000575D
S3150800AB9048F00053CDF82C900C93CDF834A0CDF89E
S3150800ABA038900F9736F070FD20460AA936F06CFDEE
S3150800ABB0204607A936F068FD259B204610A946F0D1
S3150800ABC00056CDF840B0CDF8449012951393CDF8C1
S3150800ABD05090159636F062FD204613A936F05EFDB4
S3150800ABE02046FFF71DFE17B0BDE8F08F259B53B131
S3150800ABF0BAF1000F07D0B8F1000F01D0219B13B1AD
S3150800AC00B5B9022E20D12120EDE7239B002BFAD0DF
S3150800AC10BBF1000FF7D0C7F10F03DBB2032B3FF6EA
S3150800AC2068AF0122DB0002FA03F3AB42EBD9E8E78F
S3150800AC30239B002BE7D0BBF1000FE4D0C7F10F032D
S3150800AC40DBB2032BDDD8ECE7102E7FF652AFDAE73E
S3150800AC5000000420000005042DE9F04F99B088464D
S3150800AC6015469B460446229FDDF89890289E60B1BB
S3150800AC7059B1279B4BB1BBF1000F06D0249B0BB1F2
S3150800AC80239B13B11DB9022E13D121239AE0259BCC
S3150800AC90002BFAD0B9F1000FF7D0C7F10F03DBB2DA
S3150800ACA0032BF0D80122DB0002FA03F3AB42ECD9FE
S3150800ACB0E9E7731E0F2BE8D816F0010AE5D1FB1F4A
S3150800ACC0062BE2D8414B09EB05029A42DDD8404BE8
S3150800ACD04046C4E9003AC4F808A0C4F81CA015A95F
S3150800ACE036F01AFB034600286CD12046159936F033
S3150800ACF0DFFC204646EA074136F0DAFC204624996E
S3150800AD0036F0D6FC2946204636F0D2FC404603A942
S3150800AD1000F0CAF80346002854D1204603A936F0A5
S3150800AD20B3FC404606A936F0F6FB0346002849D18F
S3150800AD304FF00108204606A936F0A6FC259B2046BA
S3150800AD40099345F00053CDF8288001930B93239B74
S3150800AD500FA90C93249B47F0005743F00052CDF8F7
S3150800AD6034800E92CDF83CB0CDF84080119736F07D
S3150800AD708BFC20460CA936F087FC204609A936F03C
S3150800AD8083FC019B204612A9CDF84890CDF84C804B
S3150800AD90149336F083FC279B204615A946F00056E7
S3150800ADA01593CDF85880179636F06EFC2046FFF7B7
S3150800ADB037FD034630B101902A465146484641F0D0
S3150800ADC08AFA019B184619B0BDE8F08F00000420E6
S3150800ADD0000006042DE9FF474FF000080E46174607
S3150800ADE00446CDF80080002859D022B90025284607
S3150800ADF004B0BDE8F087002951D032F0030902F00B
S3150800AE00030A1FD04FF0E063C0E90038012301911F
S3150800AE10C0F808800293C0F81C8049F0005301A9C5
S3150800AE20039336F03BFC4946204636F041FC204663
S3150800AE30FFF7F6FC054628B14A464146304641F03A
S3150800AE404AFAD4E7BAF1000FD0D04FF000084FF015
S3150800AE50E063C4E900380123CDF804D00293114B0E
S3150800AE60204601A9C4F80880C4F81C80039336F06C
S3150800AE7015FC0421204636F01BFC2046FFF7D0FCC3
S3150800AE80054608B13A46D8E7009A4E44EB00013524
S3150800AE9022FA03F3AA4506F8013BF7D1A6E72125CE
S3150800AEA0A5E700BF0400002090B189B101234B60DB
S3150800AEB0C368013B012B08D88269064B1AB10A60A0
S3150800AEC000208B607047044AF9E74FF00053F7E714
S3150800AED02120704708000020BC470508012300F020
S3150800AEE01F02A0F506200949A0F5506040099340C5
S3150800AEF051F820201A4341F82020054951F820200E
S3150800AF0022EA030241F82020704700BFA023002050
S3150800AF10802300200122A0F506230D49A3F55063DE
S3150800AF205B0900F01F00824051F82300024341F8F4
S3150800AF30232000231946074A52F8040B0133082B2D
S3150800AF400144F9D119B92022014841F0C4B9704722
S3150800AF5080230020A02300202DE9F04FA9B00392FA
S3150800AF601E4604460822339FCDE90401414021FAD2
S3150800AF7002F34B40980702F1080218BF9B00202AEB
S3150800AF801C44F4D1744BE4B21B7804F5062404F58A
S3150800AF905064002B3ED1FDF709FC054620B16FF041
S3150800AFA0910029B0BDE8F08F0146402208A841F07B
S3150800AFB092F94022294618A841F08DF9DFF8B481A4
S3150800AFC0DFF8B491C3460BF10F0ACDF800A05B4633
S3150800AFD01022D9F8000008A93DF0C3F8002302465C
S3150800AFE008F1100808AD9A423DD1CDF800A05B469D
S3150800AFF01022D9F8000018A93DF0BCF84FF0000A55
S3150800B000834618ADD34538D1544B9845DAD1012239
S3150800B010514B1A704FF480780025DFF860B1A4F51B
S3150800B0200623A3F5506252095BF8221004F01F00AC
S3150800B030C140C90734D44A4951F82220C240D20730
S3150800B04022D5A3F6FF43DBB2002D08BF254603F53C
S3150800B0500624B8F1010804F55064E0D1039BABB1AE
S3150800B060A5B12C4618E055F8040BCDE90623FFF7E1
S3150800B07035FF079B069A0133B5E755F8040BFFF72A
S3150800B08049FF0AF1010ABDE7039B13B96FF08B006C
S3150800B09087E7002D18BF2C46349B00201C6080E7EC
S3150800B0A0329B13B10023329A13600FB100233B6021
S3150800B0B04FF0100ADFF8C090CDF800A00023324602
S3150800B0C02146D9F8000017F033F858BB3299326890
S3150800B0D0244BC1B99A4206D02146D9F8000017F088
S3150800B0E08FF90028D2D1D6E90223DDE9041083427C
S3150800B0F008BF8A4226D0A4F50624A4F6FF44E4B283
S3150800B10004F50624A5E732999A42C1F800A0E3D1CE
S3150800B110002FE8D03B462146D9F8000018AA17F0B8
S3150800B1202BF948B1104B9842D6D0104B9842D3D041
S3150800B1300F4B9842D7D032E7329A3B6812689B1A6F
S3150800B1403B60D0E7039B002BA6D07368012BA3D1E5
S3150800B1506FF0840025E700BF9943002000710800BE
S3150800B16080230020105D175EFFDF00F011E000F07D
S3150800B170FEDF00F0006D08004C500020A0230020E0
S3150800B1802DE9F04F87B08246894698461646DDF87F
S3150800B19040B02AB1002B4FD040F26C739A424ED879
S3150800B1A0BBF1010F4ED8002406F1100739460120DD
S3150800B1B0059437F043FC0546002846D021463A4612
S3150800B1C041F089F805ABCDE9014300942B460122ED
S3150800B1D050464946FFF7C0FE044680B110F18C0F71
S3150800B1E008BF6FF08D043A460021284641F073F8EF
S3150800B1F0284637F005FC204607B0BDE8F08F144B0B
S3150800B200C5E902A92B60C5F804B02EB132464146FD
S3150800B21005F1100041F067F8059E0E483B462A46A0
S3150800B2203146006816F0ECFE18B93046FFF756FEB0
S3150800B230D9E76FF09104D6E76FF08604DBE76FF085
S3150800B2409104D8E76FF08504D5E76FF08C04D2E750
S3150800B250105D175E4C5000202DE9F0438DB08146F5
S3150800B260DDE914780E4615461C469BB1B8F1000F69
S3150800B27005D16FF0860630460DB0BDE8F083002F85
S3150800B280F7D0B7F1005FF4D3C3F1005303F5802379
S3150800B2909F42EED81022002108A841F01CF800228F
S3150800B2A007AB029305AB019306AB314600934846BC
S3150800B2B008ABCDE90522FFF74FFE06460028DAD18E
S3150800B2C0059BA4B1AB4215D853EA0504D1D1069B18
S3150800B2D00B48C8F8004000943A46079900682B4482
S3150800B2E016F026FF002818BF6FF09106C3E7AB4299
S3150800B2F0EDD2BEE75B1B9C4228BF1C46E7E700BFB2
S3150800B3004C50002030B58DB00C4605461022002161
S3150800B31008A840F0E0FF002207AB029305AB0193B3
S3150800B32006AB21460093284608ABCDE90522FFF770
S3150800B33013FE0446D8B9099B012B1BD0079D104B59
S3150800B3402946186817F05CF8B8B90122A5F506234E
S3150800B3500C49A3F550635B0905F01F00824051F8BC
S3150800B36023004240284641F82320FFF7D3FD204614
S3150800B3700DB030BD6FF08404F9E76FF09104F6E77D
S3150800B3804C500020A023002030B5048804F4E04384
S3150800B390B3F5005F2ED1C4F30223042B2AD181F022
S3150800B3A0AA6383F4807333F47E132AD081F0AA63E8
S3150800B3B083F4007333F47E1323D00023144D21F451
S3150800B3C07E11A9421AD1B4F5105F17D1418821F030
S3150800B3D04000802802D0B1F5807F15D1191F0C29AD
S3150800B3E012D8DB0710D4073A072A34BF00206FF0BB
S3150800B3F0860030BD42F204039C42DED16FF0850020
S3150800B400F7E7C1F30543D9E76FF08600F1E700BF18
S3150800B410000140052DE9F04F9BB08146DDE928760D
S3150800B4201D468B46DDF8A880DDF8BCA0099241B11F
S3150800B43038B1249B2BB1269B0BB9279B0BB91FB997
S3150800B4404EB16FF086047FE02EB1B8F1000FF8D048
S3150800B4502B9B002BF5D02C9B002BF2D0BAF1000FBA
S3150800B460EFD02E9B002BECD02D9B002BE9D0B9F802
S3150800B470003003F4E042B2F5005F69D1C3F302225B
S3150800B480042A65D185F0AA6383F4807333F47E13A6
S3150800B49006D085F0AA6383F4007333F47E1360D173
S3150800B4A0C5F3054329464846259ACAF80030FFF7EA
S3150800B4B06BFF0446002847D1014620220AA840F01F
S3150800B4C00AFF2022214612A840F005FF0AA835F0F7
S3150800B4D055FE002855D159464846099A12AB00F040
S3150800B4E0C3FA044600282FD12B9B9E424CD8DAF883
S3150800B4F000302E9A934247D8474508D2BB1998453B
